{
  "_format": "hh-sol-artifact-1",
  "contractName": "PatientManagement",
  "sourceName": "contracts/patientcontract.sol",
  "abi": [
    {
      "inputs": [],
      "stateMutability": "nonpayable",
      "type": "constructor"
    },
    {
      "anonymous": false,
      "inputs": [
        {
          "indexed": true,
          "internalType": "address",
          "name": "patientAddress",
          "type": "address"
        },
        {
          "indexed": true,
          "internalType": "address",
          "name": "doctorAddress",
          "type": "address"
        },
        {
          "indexed": false,
          "internalType": "string",
          "name": "ipfsHash",
          "type": "string"
        },
        {
          "indexed": false,
          "internalType": "uint256",
          "name": "timestamp",
          "type": "uint256"
        }
      ],
      "name": "MedicalRecordAdded",
      "type": "event"
    },
    {
      "anonymous": false,
      "inputs": [
        {
          "indexed": true,
          "internalType": "address",
          "name": "patientAddress",
          "type": "address"
        },
        {
          "indexed": false,
          "internalType": "string",
          "name": "oldIpfsHash",
          "type": "string"
        },
        {
          "indexed": false,
          "internalType": "string",
          "name": "newIpfsHash",
          "type": "string"
        },
        {
          "indexed": false,
          "internalType": "uint256",
          "name": "timestamp",
          "type": "uint256"
        }
      ],
      "name": "MedicalRecordUpdated",
      "type": "event"
    },
    {
      "anonymous": false,
      "inputs": [
        {
          "indexed": true,
          "internalType": "address",
          "name": "patientAddress",
          "type": "address"
        },
        {
          "indexed": false,
          "internalType": "string",
          "name": "username",
          "type": "string"
        },
        {
          "indexed": false,
          "internalType": "string",
          "name": "role",
          "type": "string"
        }
      ],
      "name": "PatientRegistered",
      "type": "event"
    },
    {
      "inputs": [
        {
          "internalType": "address",
          "name": "_patientAddress",
          "type": "address"
        },
        {
          "internalType": "string",
          "name": "_ipfsHash",
          "type": "string"
        },
        {
          "internalType": "string",
          "name": "_fileType",
          "type": "string"
        },
        {
          "internalType": "string",
          "name": "_fileName",
          "type": "string"
        },
        {
          "internalType": "string",
          "name": "_title",
          "type": "string"
        },
        {
          "internalType": "string",
          "name": "_resume",
          "type": "string"
        },
        {
          "internalType": "string",
          "name": "_previousVersion",
          "type": "string"
        }
      ],
      "name": "addMedicalRecord",
      "outputs": [],
      "stateMutability": "nonpayable",
      "type": "function"
    },
    {
      "inputs": [],
      "name": "admin",
      "outputs": [
        {
          "internalType": "address",
          "name": "",
          "type": "address"
        }
      ],
      "stateMutability": "view",
      "type": "function"
    },
    {
      "inputs": [
        {
          "internalType": "address",
          "name": "_patientAddress",
          "type": "address"
        }
      ],
      "name": "getActiveRecords",
      "outputs": [
        {
          "components": [
            {
              "internalType": "string",
              "name": "ipfsHash",
              "type": "string"
            },
            {
              "internalType": "string",
              "name": "fileType",
              "type": "string"
            },
            {
              "internalType": "string",
              "name": "fileName",
              "type": "string"
            },
            {
              "internalType": "string",
              "name": "title",
              "type": "string"
            },
            {
              "internalType": "string",
              "name": "resume",
              "type": "string"
            },
            {
              "internalType": "uint256",
              "name": "timestamp",
              "type": "uint256"
            },
            {
              "internalType": "address",
              "name": "doctor",
              "type": "address"
            },
            {
              "internalType": "bool",
              "name": "isActive",
              "type": "bool"
            },
            {
              "internalType": "string",
              "name": "previousVersion",
              "type": "string"
            }
          ],
          "internalType": "struct PatientManagement.MedicalRecord[]",
          "name": "",
          "type": "tuple[]"
        }
      ],
      "stateMutability": "view",
      "type": "function"
    },
    {
      "inputs": [
        {
          "internalType": "address",
          "name": "_patientAddress",
          "type": "address"
        }
      ],
      "name": "getMedicalRecords",
      "outputs": [
        {
          "components": [
            {
              "internalType": "string",
              "name": "ipfsHash",
              "type": "string"
            },
            {
              "internalType": "string",
              "name": "fileType",
              "type": "string"
            },
            {
              "internalType": "string",
              "name": "fileName",
              "type": "string"
            },
            {
              "internalType": "string",
              "name": "title",
              "type": "string"
            },
            {
              "internalType": "string",
              "name": "resume",
              "type": "string"
            },
            {
              "internalType": "uint256",
              "name": "timestamp",
              "type": "uint256"
            },
            {
              "internalType": "address",
              "name": "doctor",
              "type": "address"
            },
            {
              "internalType": "bool",
              "name": "isActive",
              "type": "bool"
            },
            {
              "internalType": "string",
              "name": "previousVersion",
              "type": "string"
            }
          ],
          "internalType": "struct PatientManagement.MedicalRecord[]",
          "name": "",
          "type": "tuple[]"
        }
      ],
      "stateMutability": "view",
      "type": "function"
    },
    {
      "inputs": [
        {
          "internalType": "address",
          "name": "_patientAddress",
          "type": "address"
        }
      ],
      "name": "getPatient",
      "outputs": [
        {
          "internalType": "string",
          "name": "username",
          "type": "string"
        },
        {
          "internalType": "string",
          "name": "role",
          "type": "string"
        }
      ],
      "stateMutability": "view",
      "type": "function"
    },
    {
      "inputs": [
        {
          "internalType": "address",
          "name": "",
          "type": "address"
        },
        {
          "internalType": "uint256",
          "name": "",
          "type": "uint256"
        }
      ],
      "name": "patientRecords",
      "outputs": [
        {
          "internalType": "string",
          "name": "ipfsHash",
          "type": "string"
        },
        {
          "internalType": "string",
          "name": "fileType",
          "type": "string"
        },
        {
          "internalType": "string",
          "name": "fileName",
          "type": "string"
        },
        {
          "internalType": "string",
          "name": "title",
          "type": "string"
        },
        {
          "internalType": "string",
          "name": "resume",
          "type": "string"
        },
        {
          "internalType": "uint256",
          "name": "timestamp",
          "type": "uint256"
        },
        {
          "internalType": "address",
          "name": "doctor",
          "type": "address"
        },
        {
          "internalType": "bool",
          "name": "isActive",
          "type": "bool"
        },
        {
          "internalType": "string",
          "name": "previousVersion",
          "type": "string"
        }
      ],
      "stateMutability": "view",
      "type": "function"
    },
    {
      "inputs": [
        {
          "internalType": "address",
          "name": "",
          "type": "address"
        }
      ],
      "name": "patients",
      "outputs": [
        {
          "internalType": "string",
          "name": "username",
          "type": "string"
        },
        {
          "internalType": "string",
          "name": "role",
          "type": "string"
        },
        {
          "internalType": "bool",
          "name": "isRegistered",
          "type": "bool"
        }
      ],
      "stateMutability": "view",
      "type": "function"
    },
    {
      "inputs": [
        {
          "internalType": "address",
          "name": "_patientAddress",
          "type": "address"
        },
        {
          "internalType": "string",
          "name": "_username",
          "type": "string"
        },
        {
          "internalType": "string",
          "name": "_role",
          "type": "string"
        }
      ],
      "name": "registerPatient",
      "outputs": [],
      "stateMutability": "nonpayable",
      "type": "function"
    }
  ],
  "bytecode": "0x60806040523480156200001157600080fd5b50336000806101000a81548173ffffffffffffffffffffffffffffffffffffffff021916908373ffffffffffffffffffffffffffffffffffffffff16021790555060405180606001604052806040518060400160405280600581526020017f61646d696e00000000000000000000000000000000000000000000000000000081525081526020016040518060400160405280600581526020017f61646d696e000000000000000000000000000000000000000000000000000000815250815260200160011515815250600160003373ffffffffffffffffffffffffffffffffffffffff1673ffffffffffffffffffffffffffffffffffffffff1681526020019081526020016000206000820151816000019081620001309190620003ec565b506020820151816001019081620001489190620003ec565b5060408201518160020160006101000a81548160ff021916908315150217905550905050620004d3565b600081519050919050565b7f4e487b7100000000000000000000000000000000000000000000000000000000600052604160045260246000fd5b7f4e487b7100000000000000000000000000000000000000000000000000000000600052602260045260246000fd5b60006002820490506001821680620001f457607f821691505b6020821081036200020a5762000209620001ac565b5b50919050565b60008190508160005260206000209050919050565b60006020601f8301049050919050565b600082821b905092915050565b600060088302620002747fffffffffffffffffffffffffffffffffffffffffffffffffffffffffffffffff8262000235565b62000280868362000235565b95508019841693508086168417925050509392505050565b6000819050919050565b6000819050919050565b6000620002cd620002c7620002c18462000298565b620002a2565b62000298565b9050919050565b6000819050919050565b620002e983620002ac565b62000301620002f882620002d4565b84845462000242565b825550505050565b600090565b6200031862000309565b62000325818484620002de565b505050565b5b818110156200034d57620003416000826200030e565b6001810190506200032b565b5050565b601f8211156200039c57620003668162000210565b620003718462000225565b8101602085101562000381578190505b62000399620003908562000225565b8301826200032a565b50505b505050565b600082821c905092915050565b6000620003c160001984600802620003a1565b1980831691505092915050565b6000620003dc8383620003ae565b9150826002028217905092915050565b620003f78262000172565b67ffffffffffffffff8111156200041357620004126200017d565b5b6200041f8254620001db565b6200042c82828562000351565b600060209050601f8311600181146200046457600084156200044f578287015190505b6200045b8582620003ce565b865550620004cb565b601f198416620004748662000210565b60005b828110156200049e5784890151825560018201915060208501945060208101905062000477565b86831015620004be5784890151620004ba601f891682620003ae565b8355505b6001600288020188555050505b505050505050565b612ad080620004e36000396000f3fe608060405234801561001057600080fd5b50600436106100885760003560e01c8063afd8297c1161005b578063afd8297c1461012f578063b5368e201461015f578063b717a67c14610190578063f851a440146101c057610088565b80630869cfbc1461008d57806337d91799146100bf5780636bc75e24146100db57806394f0df61146100f7575b600080fd5b6100a760048036038101906100a29190611ca9565b6101de565b6040516100b693929190611d81565b60405180910390f35b6100d960048036038101906100d49190611efb565b610325565b005b6100f560048036038101906100f09190611f86565b610544565b005b610111600480360381019061010c9190612106565b61096f565b60405161012699989796959493929190612164565b60405180910390f35b61014960048036038101906101449190611ca9565b610d37565b604051610156919061243c565b60405180910390f35b61017960048036038101906101749190611ca9565b61124c565b60405161018792919061245e565b60405180910390f35b6101aa60048036038101906101a59190611ca9565b61147f565b6040516101b7919061243c565b60405180910390f35b6101c8611baf565b6040516101d59190612495565b60405180910390f35b6001602052806000526040600020600091509050806000018054610201906124df565b80601f016020809104026020016040519081016040528092919081815260200182805461022d906124df565b801561027a5780601f1061024f5761010080835404028352916020019161027a565b820191906000526020600020905b81548152906001019060200180831161025d57829003601f168201915b50505050509080600101805461028f906124df565b80601f01602080910402602001604051908101604052809291908181526020018280546102bb906124df565b80156103085780601f106102dd57610100808354040283529160200191610308565b820191906000526020600020905b8154815290600101906020018083116102eb57829003601f168201915b5050505050908060020160009054906101000a900460ff16905083565b60008054906101000a900473ffffffffffffffffffffffffffffffffffffffff1673ffffffffffffffffffffffffffffffffffffffff163373ffffffffffffffffffffffffffffffffffffffff16146103b3576040517f08c379a00000000000000000000000000000000000000000000000000000000081526004016103aa90612582565b60405180910390fd5b600160008473ffffffffffffffffffffffffffffffffffffffff1673ffffffffffffffffffffffffffffffffffffffff16815260200190815260200160002060020160009054906101000a900460ff1615610443576040517f08c379a000000000000000000000000000000000000000000000000000000000815260040161043a906125ee565b60405180910390fd5b604051806060016040528083815260200182815260200160011515815250600160008573ffffffffffffffffffffffffffffffffffffffff1673ffffffffffffffffffffffffffffffffffffffff16815260200190815260200160002060008201518160000190816104b591906127ba565b5060208201518160010190816104cb91906127ba565b5060408201518160020160006101000a81548160ff0219169083151502179055509050508273ffffffffffffffffffffffffffffffffffffffff167f5aad8bc7ad9861b16c6d01a65f54118dfe585a51e408ac2e7b9499148d515c41838360405161053792919061245e565b60405180910390a2505050565b600160008873ffffffffffffffffffffffffffffffffffffffff1673ffffffffffffffffffffffffffffffffffffffff16815260200190815260200160002060020160009054906101000a900460ff166105d3576040517f08c379a00000000000000000000000000000000000000000000000000000000081526004016105ca906128d8565b60405180910390fd5b6000815111156106cf5760006003826040516105ef9190612934565b90815260200160405180910390205490506000600260008a73ffffffffffffffffffffffffffffffffffffffff1673ffffffffffffffffffffffffffffffffffffffff16815260200190815260200160002082815481106106535761065261294b565b5b906000526020600020906008020160060160146101000a81548160ff0219169083151502179055508773ffffffffffffffffffffffffffffffffffffffff167f265a47e189bdaf1e4e75ca93474dba2ad21591bb54b62e3b8633029a440dcbf68389426040516106c59392919061297a565b60405180910390a2505b60006040518061012001604052808881526020018781526020018681526020018581526020018481526020014281526020013373ffffffffffffffffffffffffffffffffffffffff168152602001600115158152602001838152509050600260008973ffffffffffffffffffffffffffffffffffffffff1673ffffffffffffffffffffffffffffffffffffffff16815260200190815260200160002081908060018154018082558091505060019003906000526020600020906008020160009091909190915060008201518160000190816107aa91906127ba565b5060208201518160010190816107c091906127ba565b5060408201518160020190816107d691906127ba565b5060608201518160030190816107ec91906127ba565b50608082015181600401908161080291906127ba565b5060a0820151816005015560c08201518160060160006101000a81548173ffffffffffffffffffffffffffffffffffffffff021916908373ffffffffffffffffffffffffffffffffffffffff16021790555060e08201518160060160146101000a81548160ff02191690831515021790555061010082015181600701908161088a91906127ba565b5050506001600260008a73ffffffffffffffffffffffffffffffffffffffff1673ffffffffffffffffffffffffffffffffffffffff168152602001908152602001600020805490506108dc91906129ee565b6003886040516108ec9190612934565b9081526020016040518091039020819055503373ffffffffffffffffffffffffffffffffffffffff168873ffffffffffffffffffffffffffffffffffffffff167f3b557cf6e59b06b2be083cba1999cdbf37ecfe98219c0ca02b7a608470419fd1894260405161095d929190612a22565b60405180910390a35050505050505050565b6002602052816000526040600020818154811061098b57600080fd5b9060005260206000209060080201600091509150508060000180546109af906124df565b80601f01602080910402602001604051908101604052809291908181526020018280546109db906124df565b8015610a285780601f106109fd57610100808354040283529160200191610a28565b820191906000526020600020905b815481529060010190602001808311610a0b57829003601f168201915b505050505090806001018054610a3d906124df565b80601f0160208091040260200160405190810160405280929190818152602001828054610a69906124df565b8015610ab65780601f10610a8b57610100808354040283529160200191610ab6565b820191906000526020600020905b815481529060010190602001808311610a9957829003601f168201915b505050505090806002018054610acb906124df565b80601f0160208091040260200160405190810160405280929190818152602001828054610af7906124df565b8015610b445780601f10610b1957610100808354040283529160200191610b44565b820191906000526020600020905b815481529060010190602001808311610b2757829003601f168201915b505050505090806003018054610b59906124df565b80601f0160208091040260200160405190810160405280929190818152602001828054610b85906124df565b8015610bd25780601f10610ba757610100808354040283529160200191610bd2565b820191906000526020600020905b815481529060010190602001808311610bb557829003601f168201915b505050505090806004018054610be7906124df565b80601f0160208091040260200160405190810160405280929190818152602001828054610c13906124df565b8015610c605780601f10610c3557610100808354040283529160200191610c60565b820191906000526020600020905b815481529060010190602001808311610c4357829003601f168201915b5050505050908060050154908060060160009054906101000a900473ffffffffffffffffffffffffffffffffffffffff16908060060160149054906101000a900460ff1690806007018054610cb4906124df565b80601f0160208091040260200160405190810160405280929190818152602001828054610ce0906124df565b8015610d2d5780601f10610d0257610100808354040283529160200191610d2d565b820191906000526020600020905b815481529060010190602001808311610d1057829003601f168201915b5050505050905089565b6060600160008373ffffffffffffffffffffffffffffffffffffffff1673ffffffffffffffffffffffffffffffffffffffff16815260200190815260200160002060020160009054906101000a900460ff16610dc8576040517f08c379a0000000000000000000000000000000000000000000000000000000008152600401610dbf906128d8565b60405180910390fd5b600260008373ffffffffffffffffffffffffffffffffffffffff1673ffffffffffffffffffffffffffffffffffffffff168152602001908152602001600020805480602002602001604051908101604052809291908181526020016000905b82821015611241578382906000526020600020906008020160405180610120016040529081600082018054610e5b906124df565b80601f0160208091040260200160405190810160405280929190818152602001828054610e87906124df565b8015610ed45780601f10610ea957610100808354040283529160200191610ed4565b820191906000526020600020905b815481529060010190602001808311610eb757829003601f168201915b50505050508152602001600182018054610eed906124df565b80601f0160208091040260200160405190810160405280929190818152602001828054610f19906124df565b8015610f665780601f10610f3b57610100808354040283529160200191610f66565b820191906000526020600020905b815481529060010190602001808311610f4957829003601f168201915b50505050508152602001600282018054610f7f906124df565b80601f0160208091040260200160405190810160405280929190818152602001828054610fab906124df565b8015610ff85780601f10610fcd57610100808354040283529160200191610ff8565b820191906000526020600020905b815481529060010190602001808311610fdb57829003601f168201915b50505050508152602001600382018054611011906124df565b80601f016020809104026020016040519081016040528092919081815260200182805461103d906124df565b801561108a5780601f1061105f5761010080835404028352916020019161108a565b820191906000526020600020905b81548152906001019060200180831161106d57829003601f168201915b505050505081526020016004820180546110a3906124df565b80601f01602080910402602001604051908101604052809291908181526020018280546110cf906124df565b801561111c5780601f106110f15761010080835404028352916020019161111c565b820191906000526020600020905b8154815290600101906020018083116110ff57829003601f168201915b50505050508152602001600582015481526020016006820160009054906101000a900473ffffffffffffffffffffffffffffffffffffffff1673ffffffffffffffffffffffffffffffffffffffff1673ffffffffffffffffffffffffffffffffffffffff1681526020016006820160149054906101000a900460ff161515151581526020016007820180546111b0906124df565b80601f01602080910402602001604051908101604052809291908181526020018280546111dc906124df565b80156112295780601f106111fe57610100808354040283529160200191611229565b820191906000526020600020905b81548152906001019060200180831161120c57829003601f168201915b50505050508152505081526020019060010190610e27565b505050509050919050565b606080600160008473ffffffffffffffffffffffffffffffffffffffff1673ffffffffffffffffffffffffffffffffffffffff16815260200190815260200160002060020160009054906101000a900460ff166112de576040517f08c379a00000000000000000000000000000000000000000000000000000000081526004016112d5906128d8565b60405180910390fd5b6000600160008573ffffffffffffffffffffffffffffffffffffffff1673ffffffffffffffffffffffffffffffffffffffff16815260200190815260200160002060405180606001604052908160008201805461133a906124df565b80601f0160208091040260200160405190810160405280929190818152602001828054611366906124df565b80156113b35780601f10611388576101008083540402835291602001916113b3565b820191906000526020600020905b81548152906001019060200180831161139657829003601f168201915b505050505081526020016001820180546113cc906124df565b80601f01602080910402602001604051908101604052809291908181526020018280546113f8906124df565b80156114455780601f1061141a57610100808354040283529160200191611445565b820191906000526020600020905b81548152906001019060200180831161142857829003601f168201915b505050505081526020016002820160009054906101000a900460ff1615151515815250509050806000015181602001519250925050915091565b6060600160008373ffffffffffffffffffffffffffffffffffffffff1673ffffffffffffffffffffffffffffffffffffffff16815260200190815260200160002060020160009054906101000a900460ff16611510576040517f08c379a0000000000000000000000000000000000000000000000000000000008152600401611507906128d8565b60405180910390fd5b6000805b600260008573ffffffffffffffffffffffffffffffffffffffff1673ffffffffffffffffffffffffffffffffffffffff168152602001908152602001600020805490508110156115f557600260008573ffffffffffffffffffffffffffffffffffffffff1673ffffffffffffffffffffffffffffffffffffffff16815260200190815260200160002081815481106115af576115ae61294b565b5b906000526020600020906008020160060160149054906101000a900460ff16156115e25781806115de90612a52565b9250505b80806115ed90612a52565b915050611514565b5060008167ffffffffffffffff81111561161257611611611dd0565b5b60405190808252806020026020018201604052801561164b57816020015b611638611bd3565b8152602001906001900390816116305790505b5090506000805b600260008773ffffffffffffffffffffffffffffffffffffffff1673ffffffffffffffffffffffffffffffffffffffff16815260200190815260200160002080549050811015611ba357600260008773ffffffffffffffffffffffffffffffffffffffff1673ffffffffffffffffffffffffffffffffffffffff16815260200190815260200160002081815481106116ed576116ec61294b565b5b906000526020600020906008020160060160149054906101000a900460ff1615611b9057600260008773ffffffffffffffffffffffffffffffffffffffff1673ffffffffffffffffffffffffffffffffffffffff16815260200190815260200160002081815481106117625761176161294b565b5b90600052602060002090600802016040518061012001604052908160008201805461178c906124df565b80601f01602080910402602001604051908101604052809291908181526020018280546117b8906124df565b80156118055780601f106117da57610100808354040283529160200191611805565b820191906000526020600020905b8154815290600101906020018083116117e857829003601f168201915b5050505050815260200160018201805461181e906124df565b80601f016020809104026020016040519081016040528092919081815260200182805461184a906124df565b80156118975780601f1061186c57610100808354040283529160200191611897565b820191906000526020600020905b81548152906001019060200180831161187a57829003601f168201915b505050505081526020016002820180546118b0906124df565b80601f01602080910402602001604051908101604052809291908181526020018280546118dc906124df565b80156119295780601f106118fe57610100808354040283529160200191611929565b820191906000526020600020905b81548152906001019060200180831161190c57829003601f168201915b50505050508152602001600382018054611942906124df565b80601f016020809104026020016040519081016040528092919081815260200182805461196e906124df565b80156119bb5780601f10611990576101008083540402835291602001916119bb565b820191906000526020600020905b81548152906001019060200180831161199e57829003601f168201915b505050505081526020016004820180546119d4906124df565b80601f0160208091040260200160405190810160405280929190818152602001828054611a00906124df565b8015611a4d5780601f10611a2257610100808354040283529160200191611a4d565b820191906000526020600020905b815481529060010190602001808311611a3057829003601f168201915b50505050508152602001600582015481526020016006820160009054906101000a900473ffffffffffffffffffffffffffffffffffffffff1673ffffffffffffffffffffffffffffffffffffffff1673ffffffffffffffffffffffffffffffffffffffff1681526020016006820160149054906101000a900460ff16151515158152602001600782018054611ae1906124df565b80601f0160208091040260200160405190810160405280929190818152602001828054611b0d906124df565b8015611b5a5780601f10611b2f57610100808354040283529160200191611b5a565b820191906000526020600020905b815481529060010190602001808311611b3d57829003601f168201915b505050505081525050838381518110611b7657611b7561294b565b5b60200260200101819052508180611b8c90612a52565b9250505b8080611b9b90612a52565b915050611652565b50819350505050919050565b60008054906101000a900473ffffffffffffffffffffffffffffffffffffffff1681565b604051806101200160405280606081526020016060815260200160608152602001606081526020016060815260200160008152602001600073ffffffffffffffffffffffffffffffffffffffff168152602001600015158152602001606081525090565b6000604051905090565b600080fd5b600080fd5b600073ffffffffffffffffffffffffffffffffffffffff82169050919050565b6000611c7682611c4b565b9050919050565b611c8681611c6b565b8114611c9157600080fd5b50565b600081359050611ca381611c7d565b92915050565b600060208284031215611cbf57611cbe611c41565b5b6000611ccd84828501611c94565b91505092915050565b600081519050919050565b600082825260208201905092915050565b60005b83811015611d10578082015181840152602081019050611cf5565b60008484015250505050565b6000601f19601f8301169050919050565b6000611d3882611cd6565b611d428185611ce1565b9350611d52818560208601611cf2565b611d5b81611d1c565b840191505092915050565b60008115159050919050565b611d7b81611d66565b82525050565b60006060820190508181036000830152611d9b8186611d2d565b90508181036020830152611daf8185611d2d565b9050611dbe6040830184611d72565b949350505050565b600080fd5b600080fd5b7f4e487b7100000000000000000000000000000000000000000000000000000000600052604160045260246000fd5b611e0882611d1c565b810181811067ffffffffffffffff82111715611e2757611e26611dd0565b5b80604052505050565b6000611e3a611c37565b9050611e468282611dff565b919050565b600067ffffffffffffffff821115611e6657611e65611dd0565b5b611e6f82611d1c565b9050602081019050919050565b82818337600083830152505050565b6000611e9e611e9984611e4b565b611e30565b905082815260208101848484011115611eba57611eb9611dcb565b5b611ec5848285611e7c565b509392505050565b600082601f830112611ee257611ee1611dc6565b5b8135611ef2848260208601611e8b565b91505092915050565b600080600060608486031215611f1457611f13611c41565b5b6000611f2286828701611c94565b935050602084013567ffffffffffffffff811115611f4357611f42611c46565b5b611f4f86828701611ecd565b925050604084013567ffffffffffffffff811115611f7057611f6f611c46565b5b611f7c86828701611ecd565b9150509250925092565b600080600080600080600060e0888a031215611fa557611fa4611c41565b5b6000611fb38a828b01611c94565b975050602088013567ffffffffffffffff811115611fd457611fd3611c46565b5b611fe08a828b01611ecd565b965050604088013567ffffffffffffffff81111561200157612000611c46565b5b61200d8a828b01611ecd565b955050606088013567ffffffffffffffff81111561202e5761202d611c46565b5b61203a8a828b01611ecd565b945050608088013567ffffffffffffffff81111561205b5761205a611c46565b5b6120678a828b01611ecd565b93505060a088013567ffffffffffffffff81111561208857612087611c46565b5b6120948a828b01611ecd565b92505060c088013567ffffffffffffffff8111156120b5576120b4611c46565b5b6120c18a828b01611ecd565b91505092959891949750929550565b6000819050919050565b6120e3816120d0565b81146120ee57600080fd5b50565b600081359050612100816120da565b92915050565b6000806040838503121561211d5761211c611c41565b5b600061212b85828601611c94565b925050602061213c858286016120f1565b9150509250929050565b61214f816120d0565b82525050565b61215e81611c6b565b82525050565b600061012082019050818103600083015261217f818c611d2d565b90508181036020830152612193818b611d2d565b905081810360408301526121a7818a611d2d565b905081810360608301526121bb8189611d2d565b905081810360808301526121cf8188611d2d565b90506121de60a0830187612146565b6121eb60c0830186612155565b6121f860e0830185611d72565b81810361010083015261220b8184611d2d565b90509a9950505050505050505050565b600081519050919050565b600082825260208201905092915050565b6000819050602082019050919050565b600082825260208201905092915050565b600061226382611cd6565b61226d8185612247565b935061227d818560208601611cf2565b61228681611d1c565b840191505092915050565b61229a816120d0565b82525050565b6122a981611c6b565b82525050565b6122b881611d66565b82525050565b60006101208301600083015184820360008601526122dc8282612258565b915050602083015184820360208601526122f68282612258565b915050604083015184820360408601526123108282612258565b9150506060830151848203606086015261232a8282612258565b915050608083015184820360808601526123448282612258565b91505060a083015161235960a0860182612291565b5060c083015161236c60c08601826122a0565b5060e083015161237f60e08601826122af565b506101008301518482036101008601526123998282612258565b9150508091505092915050565b60006123b283836122be565b905092915050565b6000602082019050919050565b60006123d28261221b565b6123dc8185612226565b9350836020820285016123ee85612237565b8060005b8581101561242a578484038952815161240b85826123a6565b9450612416836123ba565b925060208a019950506001810190506123f2565b50829750879550505050505092915050565b6000602082019050818103600083015261245681846123c7565b905092915050565b600060408201905081810360008301526124788185611d2d565b9050818103602083015261248c8184611d2d565b90509392505050565b60006020820190506124aa6000830184612155565b92915050565b7f4e487b7100000000000000000000000000000000000000000000000000000000600052602260045260246000fd5b600060028204905060018216806124f757607f821691505b60208210810361250a576125096124b0565b5b50919050565b7f4f6e6c792061646d696e2063616e2063616c6c20746869732066756e6374696f60008201527f6e00000000000000000000000000000000000000000000000000000000000000602082015250565b600061256c602183611ce1565b915061257782612510565b604082019050919050565b6000602082019050818103600083015261259b8161255f565b9050919050565b7f50617469656e7420616c72656164792072656769737465726564000000000000600082015250565b60006125d8601a83611ce1565b91506125e3826125a2565b602082019050919050565b60006020820190508181036000830152612607816125cb565b9050919050565b60008190508160005260206000209050919050565b60006020601f8301049050919050565b600082821b905092915050565b6000600883026126707fffffffffffffffffffffffffffffffffffffffffffffffffffffffffffffffff82612633565b61267a8683612633565b95508019841693508086168417925050509392505050565b6000819050919050565b60006126b76126b26126ad846120d0565b612692565b6120d0565b9050919050565b6000819050919050565b6126d18361269c565b6126e56126dd826126be565b848454612640565b825550505050565b600090565b6126fa6126ed565b6127058184846126c8565b505050565b5b818110156127295761271e6000826126f2565b60018101905061270b565b5050565b601f82111561276e5761273f8161260e565b61274884612623565b81016020851015612757578190505b61276b61276385612623565b83018261270a565b50505b505050565b600082821c905092915050565b600061279160001984600802612773565b1980831691505092915050565b60006127aa8383612780565b9150826002028217905092915050565b6127c382611cd6565b67ffffffffffffffff8111156127dc576127db611dd0565b5b6127e682546124df565b6127f182828561272d565b600060209050601f8311600181146128245760008415612812578287015190505b61281c858261279e565b865550612884565b601f1984166128328661260e565b60005b8281101561285a57848901518255600182019150602085019450602081019050612835565b868310156128775784890151612873601f891682612780565b8355505b6001600288020188555050505b505050505050565b7f50617469656e74206e6f74207265676973746572656400000000000000000000600082015250565b60006128c2601683611ce1565b91506128cd8261288c565b602082019050919050565b600060208201905081810360008301526128f1816128b5565b9050919050565b600081905092915050565b600061290e82611cd6565b61291881856128f8565b9350612928818560208601611cf2565b80840191505092915050565b60006129408284612903565b915081905092915050565b7f4e487b7100000000000000000000000000000000000000000000000000000000600052603260045260246000fd5b600060608201905081810360008301526129948186611d2d565b905081810360208301526129a88185611d2d565b90506129b76040830184612146565b949350505050565b7f4e487b7100000000000000000000000000000000000000000000000000000000600052601160045260246000fd5b60006129f9826120d0565b9150612a04836120d0565b9250828203905081811115612a1c57612a1b6129bf565b5b92915050565b60006040820190508181036000830152612a3c8185611d2d565b9050612a4b6020830184612146565b9392505050565b6000612a5d826120d0565b91507fffffffffffffffffffffffffffffffffffffffffffffffffffffffffffffffff8203612a8f57612a8e6129bf565b5b60018201905091905056fea26469706673582212201eed06f02d9847c1b93afd6d1989667ab25aae0cf009b556bcc0e2f0fb732b8d64736f6c63430008140033",
  "linkReferences": {},
  "deployedLinkReferences": {}
}