{
  "_format": "hh-sol-artifact-1",
  "contractName": "DoctorManagement",
  "sourceName": "contracts/doctorcontract.sol",
  "abi": [
    {
      "inputs": [],
      "stateMutability": "nonpayable",
      "type": "constructor"
    },
    {
      "anonymous": false,
      "inputs": [
        {
          "indexed": true,
          "internalType": "address",
          "name": "doctorAddress",
          "type": "address"
        },
        {
          "indexed": false,
          "internalType": "string",
          "name": "username",
          "type": "string"
        },
        {
          "indexed": false,
          "internalType": "string",
          "name": "role",
          "type": "string"
        }
      ],
      "name": "DoctorRegistered",
      "type": "event"
    },
    {
      "anonymous": false,
      "inputs": [
        {
          "indexed": true,
          "internalType": "address",
          "name": "doctorAddress",
          "type": "address"
        },
        {
          "indexed": true,
          "internalType": "address",
          "name": "patientAddress",
          "type": "address"
        }
      ],
      "name": "PatientAccessGranted",
      "type": "event"
    },
    {
      "anonymous": false,
      "inputs": [
        {
          "indexed": true,
          "internalType": "address",
          "name": "doctorAddress",
          "type": "address"
        },
        {
          "indexed": true,
          "internalType": "address",
          "name": "patientAddress",
          "type": "address"
        }
      ],
      "name": "PatientAccessRevoked",
      "type": "event"
    },
    {
      "inputs": [
        {
          "internalType": "address",
          "name": "_doctorAddress",
          "type": "address"
        },
        {
          "internalType": "address",
          "name": "_patientAddress",
          "type": "address"
        }
      ],
      "name": "addPatientAccess",
      "outputs": [],
      "stateMutability": "nonpayable",
      "type": "function"
    },
    {
      "inputs": [],
      "name": "admin",
      "outputs": [
        {
          "internalType": "address",
          "name": "",
          "type": "address"
        }
      ],
      "stateMutability": "view",
      "type": "function"
    },
    {
      "inputs": [
        {
          "internalType": "address",
          "name": "",
          "type": "address"
        },
        {
          "internalType": "address",
          "name": "",
          "type": "address"
        }
      ],
      "name": "doctorPatientAccess",
      "outputs": [
        {
          "internalType": "bool",
          "name": "",
          "type": "bool"
        }
      ],
      "stateMutability": "view",
      "type": "function"
    },
    {
      "inputs": [
        {
          "internalType": "address",
          "name": "",
          "type": "address"
        },
        {
          "internalType": "uint256",
          "name": "",
          "type": "uint256"
        }
      ],
      "name": "doctorPatients",
      "outputs": [
        {
          "internalType": "address",
          "name": "",
          "type": "address"
        }
      ],
      "stateMutability": "view",
      "type": "function"
    },
    {
      "inputs": [
        {
          "internalType": "address",
          "name": "",
          "type": "address"
        }
      ],
      "name": "doctors",
      "outputs": [
        {
          "internalType": "string",
          "name": "username",
          "type": "string"
        },
        {
          "internalType": "string",
          "name": "role",
          "type": "string"
        },
        {
          "internalType": "bool",
          "name": "isRegistered",
          "type": "bool"
        }
      ],
      "stateMutability": "view",
      "type": "function"
    },
    {
      "inputs": [],
      "name": "getAllDoctors",
      "outputs": [
        {
          "internalType": "address[]",
          "name": "",
          "type": "address[]"
        }
      ],
      "stateMutability": "view",
      "type": "function"
    },
    {
      "inputs": [
        {
          "internalType": "address",
          "name": "_doctorAddress",
          "type": "address"
        }
      ],
      "name": "getAuthorizedPatients",
      "outputs": [
        {
          "internalType": "address[]",
          "name": "",
          "type": "address[]"
        }
      ],
      "stateMutability": "view",
      "type": "function"
    },
    {
      "inputs": [
        {
          "internalType": "address",
          "name": "_doctorAddress",
          "type": "address"
        }
      ],
      "name": "getDoctor",
      "outputs": [
        {
          "internalType": "string",
          "name": "username",
          "type": "string"
        },
        {
          "internalType": "string",
          "name": "role",
          "type": "string"
        }
      ],
      "stateMutability": "view",
      "type": "function"
    },
    {
      "inputs": [
        {
          "internalType": "address",
          "name": "_doctorAddress",
          "type": "address"
        },
        {
          "internalType": "address",
          "name": "_patientAddress",
          "type": "address"
        }
      ],
      "name": "isAuthorized",
      "outputs": [
        {
          "internalType": "bool",
          "name": "",
          "type": "bool"
        }
      ],
      "stateMutability": "view",
      "type": "function"
    },
    {
      "inputs": [
        {
          "internalType": "address",
          "name": "_doctorAddress",
          "type": "address"
        },
        {
          "internalType": "string",
          "name": "_username",
          "type": "string"
        },
        {
          "internalType": "string",
          "name": "_role",
          "type": "string"
        }
      ],
      "name": "registerDoctor",
      "outputs": [],
      "stateMutability": "nonpayable",
      "type": "function"
    },
    {
      "inputs": [
        {
          "internalType": "address",
          "name": "_doctorAddress",
          "type": "address"
        },
        {
          "internalType": "address",
          "name": "_patientAddress",
          "type": "address"
        }
      ],
      "name": "revokePatientAccess",
      "outputs": [],
      "stateMutability": "nonpayable",
      "type": "function"
    }
  ],
  "bytecode": "0x60806040523480156200001157600080fd5b50336000806101000a81548173ffffffffffffffffffffffffffffffffffffffff021916908373ffffffffffffffffffffffffffffffffffffffff16021790555060405180606001604052806040518060400160405280600581526020017f61646d696e00000000000000000000000000000000000000000000000000000081525081526020016040518060400160405280600581526020017f61646d696e000000000000000000000000000000000000000000000000000000815250815260200160011515815250600160003373ffffffffffffffffffffffffffffffffffffffff1673ffffffffffffffffffffffffffffffffffffffff16815260200190815260200160002060008201518160000190816200013091906200044f565b5060208201518160010190816200014891906200044f565b5060408201518160020160006101000a81548160ff0219169083151502179055509050506002339080600181540180825580915050600190039060005260206000200160009091909190916101000a81548173ffffffffffffffffffffffffffffffffffffffff021916908373ffffffffffffffffffffffffffffffffffffffff16021790555062000536565b600081519050919050565b7f4e487b7100000000000000000000000000000000000000000000000000000000600052604160045260246000fd5b7f4e487b7100000000000000000000000000000000000000000000000000000000600052602260045260246000fd5b600060028204905060018216806200025757607f821691505b6020821081036200026d576200026c6200020f565b5b50919050565b60008190508160005260206000209050919050565b60006020601f8301049050919050565b600082821b905092915050565b600060088302620002d77fffffffffffffffffffffffffffffffffffffffffffffffffffffffffffffffff8262000298565b620002e3868362000298565b95508019841693508086168417925050509392505050565b6000819050919050565b6000819050919050565b6000620003306200032a6200032484620002fb565b62000305565b620002fb565b9050919050565b6000819050919050565b6200034c836200030f565b620003646200035b8262000337565b848454620002a5565b825550505050565b600090565b6200037b6200036c565b6200038881848462000341565b505050565b5b81811015620003b057620003a460008262000371565b6001810190506200038e565b5050565b601f821115620003ff57620003c98162000273565b620003d48462000288565b81016020851015620003e4578190505b620003fc620003f38562000288565b8301826200038d565b50505b505050565b600082821c905092915050565b6000620004246000198460080262000404565b1980831691505092915050565b60006200043f838362000411565b9150826002028217905092915050565b6200045a82620001d5565b67ffffffffffffffff811115620004765762000475620001e0565b5b6200048282546200023e565b6200048f828285620003b4565b600060209050601f831160018114620004c75760008415620004b2578287015190505b620004be858262000431565b8655506200052e565b601f198416620004d78662000273565b60005b828110156200050157848901518255600182019150602085019450602081019050620004da565b868310156200052157848901516200051d601f89168262000411565b8355505b6001600288020188555050505b505050505050565b611e8980620005466000396000f3fe608060405234801561001057600080fd5b50600436106100a95760003560e01c806365e4ad9e1161007157806365e4ad9e146101635780637c8b24e614610193578063a133b27e146101c3578063a9583c22146101f3578063f0d9509014610225578063f851a44014610243576100a9565b80630ff42188146100ae578063177870c2146100ca5780632f04e064146100e65780634ac9e3001461011757806353d08ef414610147575b600080fd5b6100c860048036038101906100c391906112cf565b610261565b005b6100e460048036038101906100df91906112cf565b61054d565b005b61010060048036038101906100fb919061130f565b6109d1565b60405161010e9291906113cc565b60405180910390f35b610131600480360381019061012c9190611439565b610c04565b60405161013e9190611488565b60405180910390f35b610161600480360381019061015c91906115d8565b610c52565b005b61017d600480360381019061017891906112cf565b610ed4565b60405161018a919061167e565b60405180910390f35b6101ad60048036038101906101a8919061130f565b610f68565b6040516101ba9190611757565b60405180910390f35b6101dd60048036038101906101d891906112cf565b611035565b6040516101ea919061167e565b60405180910390f35b61020d6004803603810190610208919061130f565b611064565b60405161021c93929190611779565b60405180910390f35b61022d6111ab565b60405161023a9190611757565b60405180910390f35b61024b611239565b6040516102589190611488565b60405180910390f35b600160008373ffffffffffffffffffffffffffffffffffffffff1673ffffffffffffffffffffffffffffffffffffffff16815260200190815260200160002060020160009054906101000a900460ff166102f0576040517f08c379a00000000000000000000000000000000000000000000000000000000081526004016102e79061180a565b60405180910390fd5b600460008373ffffffffffffffffffffffffffffffffffffffff1673ffffffffffffffffffffffffffffffffffffffff16815260200190815260200160002060008273ffffffffffffffffffffffffffffffffffffffff1673ffffffffffffffffffffffffffffffffffffffff16815260200190815260200160002060009054906101000a900460ff16156103ba576040517f08c379a00000000000000000000000000000000000000000000000000000000081526004016103b190611876565b60405180910390fd5b600360008373ffffffffffffffffffffffffffffffffffffffff1673ffffffffffffffffffffffffffffffffffffffff168152602001908152602001600020819080600181540180825580915050600190039060005260206000200160009091909190916101000a81548173ffffffffffffffffffffffffffffffffffffffff021916908373ffffffffffffffffffffffffffffffffffffffff1602179055506001600460008473ffffffffffffffffffffffffffffffffffffffff1673ffffffffffffffffffffffffffffffffffffffff16815260200190815260200160002060008373ffffffffffffffffffffffffffffffffffffffff1673ffffffffffffffffffffffffffffffffffffffff16815260200190815260200160002060006101000a81548160ff0219169083151502179055508073ffffffffffffffffffffffffffffffffffffffff168273ffffffffffffffffffffffffffffffffffffffff167fa8d30211503e661fc2de68b2101d6be49294343e7f07c162a69eff23898ef0c160405160405180910390a35050565b600160008373ffffffffffffffffffffffffffffffffffffffff1673ffffffffffffffffffffffffffffffffffffffff16815260200190815260200160002060020160009054906101000a900460ff166105dc576040517f08c379a00000000000000000000000000000000000000000000000000000000081526004016105d39061180a565b60405180910390fd5b600460008373ffffffffffffffffffffffffffffffffffffffff1673ffffffffffffffffffffffffffffffffffffffff16815260200190815260200160002060008273ffffffffffffffffffffffffffffffffffffffff1673ffffffffffffffffffffffffffffffffffffffff16815260200190815260200160002060009054906101000a900460ff166106a5576040517f08c379a000000000000000000000000000000000000000000000000000000000815260040161069c906118e2565b60405180910390fd5b8073ffffffffffffffffffffffffffffffffffffffff163373ffffffffffffffffffffffffffffffffffffffff1614610713576040517f08c379a000000000000000000000000000000000000000000000000000000000815260040161070a9061194e565b60405180910390fd5b6000600460008473ffffffffffffffffffffffffffffffffffffffff1673ffffffffffffffffffffffffffffffffffffffff16815260200190815260200160002060008373ffffffffffffffffffffffffffffffffffffffff1673ffffffffffffffffffffffffffffffffffffffff16815260200190815260200160002060006101000a81548160ff0219169083151502179055506000600360008473ffffffffffffffffffffffffffffffffffffffff1673ffffffffffffffffffffffffffffffffffffffff168152602001908152602001600020905060005b8180549050811015610971578273ffffffffffffffffffffffffffffffffffffffff168282815481106108245761082361196e565b5b9060005260206000200160009054906101000a900473ffffffffffffffffffffffffffffffffffffffff1673ffffffffffffffffffffffffffffffffffffffff160361095e57816001838054905061087c91906119cc565b8154811061088d5761088c61196e565b5b9060005260206000200160009054906101000a900473ffffffffffffffffffffffffffffffffffffffff168282815481106108cb576108ca61196e565b5b9060005260206000200160006101000a81548173ffffffffffffffffffffffffffffffffffffffff021916908373ffffffffffffffffffffffffffffffffffffffff1602179055508180548061092457610923611a00565b5b6001900381819060005260206000200160006101000a81549073ffffffffffffffffffffffffffffffffffffffff02191690559055610971565b808061096990611a2f565b9150506107ee565b508173ffffffffffffffffffffffffffffffffffffffff168373ffffffffffffffffffffffffffffffffffffffff167f6869da424d3514d77420cdfa92bf9041b88dc6c70941bd7446fb7f013f95ddf160405160405180910390a3505050565b606080600160008473ffffffffffffffffffffffffffffffffffffffff1673ffffffffffffffffffffffffffffffffffffffff16815260200190815260200160002060020160009054906101000a900460ff16610a63576040517f08c379a0000000000000000000000000000000000000000000000000000000008152600401610a5a9061180a565b60405180910390fd5b6000600160008573ffffffffffffffffffffffffffffffffffffffff1673ffffffffffffffffffffffffffffffffffffffff168152602001908152602001600020604051806060016040529081600082018054610abf90611aa6565b80601f0160208091040260200160405190810160405280929190818152602001828054610aeb90611aa6565b8015610b385780601f10610b0d57610100808354040283529160200191610b38565b820191906000526020600020905b815481529060010190602001808311610b1b57829003601f168201915b50505050508152602001600182018054610b5190611aa6565b80601f0160208091040260200160405190810160405280929190818152602001828054610b7d90611aa6565b8015610bca5780601f10610b9f57610100808354040283529160200191610bca565b820191906000526020600020905b815481529060010190602001808311610bad57829003601f168201915b505050505081526020016002820160009054906101000a900460ff1615151515815250509050806000015181602001519250925050915091565b60036020528160005260406000208181548110610c2057600080fd5b906000526020600020016000915091509054906101000a900473ffffffffffffffffffffffffffffffffffffffff1681565b60008054906101000a900473ffffffffffffffffffffffffffffffffffffffff1673ffffffffffffffffffffffffffffffffffffffff163373ffffffffffffffffffffffffffffffffffffffff1614610ce0576040517f08c379a0000000000000000000000000000000000000000000000000000000008152600401610cd790611b49565b60405180910390fd5b600160008473ffffffffffffffffffffffffffffffffffffffff1673ffffffffffffffffffffffffffffffffffffffff16815260200190815260200160002060020160009054906101000a900460ff1615610d70576040517f08c379a0000000000000000000000000000000000000000000000000000000008152600401610d6790611bb5565b60405180910390fd5b604051806060016040528083815260200182815260200160011515815250600160008573ffffffffffffffffffffffffffffffffffffffff1673ffffffffffffffffffffffffffffffffffffffff1681526020019081526020016000206000820151816000019081610de29190611d81565b506020820151816001019081610df89190611d81565b5060408201518160020160006101000a81548160ff0219169083151502179055509050506002839080600181540180825580915050600190039060005260206000200160009091909190916101000a81548173ffffffffffffffffffffffffffffffffffffffff021916908373ffffffffffffffffffffffffffffffffffffffff1602179055508273ffffffffffffffffffffffffffffffffffffffff167fbc3a5b2aeb1bc52e3d56d3fd3423dd66cea5ecff8ae1f3bd0d75a0e608da7b858383604051610ec79291906113cc565b60405180910390a2505050565b6000600460008473ffffffffffffffffffffffffffffffffffffffff1673ffffffffffffffffffffffffffffffffffffffff16815260200190815260200160002060008373ffffffffffffffffffffffffffffffffffffffff1673ffffffffffffffffffffffffffffffffffffffff16815260200190815260200160002060009054906101000a900460ff16905092915050565b6060600360008373ffffffffffffffffffffffffffffffffffffffff1673ffffffffffffffffffffffffffffffffffffffff16815260200190815260200160002080548060200260200160405190810160405280929190818152602001828054801561102957602002820191906000526020600020905b8160009054906101000a900473ffffffffffffffffffffffffffffffffffffffff1673ffffffffffffffffffffffffffffffffffffffff1681526020019060010190808311610fdf575b50505050509050919050565b60046020528160005260406000206020528060005260406000206000915091509054906101000a900460ff1681565b600160205280600052604060002060009150905080600001805461108790611aa6565b80601f01602080910402602001604051908101604052809291908181526020018280546110b390611aa6565b80156111005780601f106110d557610100808354040283529160200191611100565b820191906000526020600020905b8154815290600101906020018083116110e357829003601f168201915b50505050509080600101805461111590611aa6565b80601f016020809104026020016040519081016040528092919081815260200182805461114190611aa6565b801561118e5780601f106111635761010080835404028352916020019161118e565b820191906000526020600020905b81548152906001019060200180831161117157829003601f168201915b5050505050908060020160009054906101000a900460ff16905083565b6060600280548060200260200160405190810160405280929190818152602001828054801561122f57602002820191906000526020600020905b8160009054906101000a900473ffffffffffffffffffffffffffffffffffffffff1673ffffffffffffffffffffffffffffffffffffffff16815260200190600101908083116111e5575b5050505050905090565b60008054906101000a900473ffffffffffffffffffffffffffffffffffffffff1681565b6000604051905090565b600080fd5b600080fd5b600073ffffffffffffffffffffffffffffffffffffffff82169050919050565b600061129c82611271565b9050919050565b6112ac81611291565b81146112b757600080fd5b50565b6000813590506112c9816112a3565b92915050565b600080604083850312156112e6576112e5611267565b5b60006112f4858286016112ba565b9250506020611305858286016112ba565b9150509250929050565b60006020828403121561132557611324611267565b5b6000611333848285016112ba565b91505092915050565b600081519050919050565b600082825260208201905092915050565b60005b8381101561137657808201518184015260208101905061135b565b60008484015250505050565b6000601f19601f8301169050919050565b600061139e8261133c565b6113a88185611347565b93506113b8818560208601611358565b6113c181611382565b840191505092915050565b600060408201905081810360008301526113e68185611393565b905081810360208301526113fa8184611393565b90509392505050565b6000819050919050565b61141681611403565b811461142157600080fd5b50565b6000813590506114338161140d565b92915050565b600080604083850312156114505761144f611267565b5b600061145e858286016112ba565b925050602061146f85828601611424565b9150509250929050565b61148281611291565b82525050565b600060208201905061149d6000830184611479565b92915050565b600080fd5b600080fd5b7f4e487b7100000000000000000000000000000000000000000000000000000000600052604160045260246000fd5b6114e582611382565b810181811067ffffffffffffffff82111715611504576115036114ad565b5b80604052505050565b600061151761125d565b905061152382826114dc565b919050565b600067ffffffffffffffff821115611543576115426114ad565b5b61154c82611382565b9050602081019050919050565b82818337600083830152505050565b600061157b61157684611528565b61150d565b905082815260208101848484011115611597576115966114a8565b5b6115a2848285611559565b509392505050565b600082601f8301126115bf576115be6114a3565b5b81356115cf848260208601611568565b91505092915050565b6000806000606084860312156115f1576115f0611267565b5b60006115ff868287016112ba565b935050602084013567ffffffffffffffff8111156116205761161f61126c565b5b61162c868287016115aa565b925050604084013567ffffffffffffffff81111561164d5761164c61126c565b5b611659868287016115aa565b9150509250925092565b60008115159050919050565b61167881611663565b82525050565b6000602082019050611693600083018461166f565b92915050565b600081519050919050565b600082825260208201905092915050565b6000819050602082019050919050565b6116ce81611291565b82525050565b60006116e083836116c5565b60208301905092915050565b6000602082019050919050565b600061170482611699565b61170e81856116a4565b9350611719836116b5565b8060005b8381101561174a57815161173188826116d4565b975061173c836116ec565b92505060018101905061171d565b5085935050505092915050565b6000602082019050818103600083015261177181846116f9565b905092915050565b600060608201905081810360008301526117938186611393565b905081810360208301526117a78185611393565b90506117b6604083018461166f565b949350505050565b7f446f63746f72206e6f7420726567697374657265640000000000000000000000600082015250565b60006117f4601583611347565b91506117ff826117be565b602082019050919050565b60006020820190508181036000830152611823816117e7565b9050919050565b7f41636365737320616c7265616479206772616e74656400000000000000000000600082015250565b6000611860601683611347565b915061186b8261182a565b602082019050919050565b6000602082019050818103600083015261188f81611853565b9050919050565b7f416363657373206e6f74206772616e7465640000000000000000000000000000600082015250565b60006118cc601283611347565b91506118d782611896565b602082019050919050565b600060208201905081810360008301526118fb816118bf565b9050919050565b7f4f6e6c792070617469656e742063616e207265766f6b65206163636573730000600082015250565b6000611938601e83611347565b915061194382611902565b602082019050919050565b600060208201905081810360008301526119678161192b565b9050919050565b7f4e487b7100000000000000000000000000000000000000000000000000000000600052603260045260246000fd5b7f4e487b7100000000000000000000000000000000000000000000000000000000600052601160045260246000fd5b60006119d782611403565b91506119e283611403565b92508282039050818111156119fa576119f961199d565b5b92915050565b7f4e487b7100000000000000000000000000000000000000000000000000000000600052603160045260246000fd5b6000611a3a82611403565b91507fffffffffffffffffffffffffffffffffffffffffffffffffffffffffffffffff8203611a6c57611a6b61199d565b5b600182019050919050565b7f4e487b7100000000000000000000000000000000000000000000000000000000600052602260045260246000fd5b60006002820490506001821680611abe57607f821691505b602082108103611ad157611ad0611a77565b5b50919050565b7f4f6e6c792061646d696e2063616e2063616c6c20746869732066756e6374696f60008201527f6e00000000000000000000000000000000000000000000000000000000000000602082015250565b6000611b33602183611347565b9150611b3e82611ad7565b604082019050919050565b60006020820190508181036000830152611b6281611b26565b9050919050565b7f446f63746f7220616c7265616479207265676973746572656400000000000000600082015250565b6000611b9f601983611347565b9150611baa82611b69565b602082019050919050565b60006020820190508181036000830152611bce81611b92565b9050919050565b60008190508160005260206000209050919050565b60006020601f8301049050919050565b600082821b905092915050565b600060088302611c377fffffffffffffffffffffffffffffffffffffffffffffffffffffffffffffffff82611bfa565b611c418683611bfa565b95508019841693508086168417925050509392505050565b6000819050919050565b6000611c7e611c79611c7484611403565b611c59565b611403565b9050919050565b6000819050919050565b611c9883611c63565b611cac611ca482611c85565b848454611c07565b825550505050565b600090565b611cc1611cb4565b611ccc818484611c8f565b505050565b5b81811015611cf057611ce5600082611cb9565b600181019050611cd2565b5050565b601f821115611d3557611d0681611bd5565b611d0f84611bea565b81016020851015611d1e578190505b611d32611d2a85611bea565b830182611cd1565b50505b505050565b600082821c905092915050565b6000611d5860001984600802611d3a565b1980831691505092915050565b6000611d718383611d47565b9150826002028217905092915050565b611d8a8261133c565b67ffffffffffffffff811115611da357611da26114ad565b5b611dad8254611aa6565b611db8828285611cf4565b600060209050601f831160018114611deb5760008415611dd9578287015190505b611de38582611d65565b865550611e4b565b601f198416611df986611bd5565b60005b82811015611e2157848901518255600182019150602085019450602081019050611dfc565b86831015611e3e5784890151611e3a601f891682611d47565b8355505b6001600288020188555050505b50505050505056fea26469706673582212209423980c361314f72440fe7b54a733daa84b25d084d746a1f2a33bf10f306a9164736f6c63430008140033",
  "linkReferences": {},
  "deployedLinkReferences": {}
}