{
  "_format": "hh-sol-artifact-1",
  "contractName": "HealthcareAudit",
  "sourceName": "contracts/auditcontract.sol",
  "abi": [
    {
      "inputs": [],
      "stateMutability": "nonpayable",
      "type": "constructor"
    },
    {
      "anonymous": false,
      "inputs": [
        {
          "indexed": true,
          "internalType": "address",
          "name": "actor",
          "type": "address"
        },
        {
          "indexed": false,
          "internalType": "string",
          "name": "actionType",
          "type": "string"
        },
        {
          "indexed": true,
          "internalType": "address",
          "name": "subject",
          "type": "address"
        },
        {
          "indexed": false,
          "internalType": "string",
          "name": "details",
          "type": "string"
        },
        {
          "indexed": false,
          "internalType": "uint256",
          "name": "timestamp",
          "type": "uint256"
        }
      ],
      "name": "AuditLogAdded",
      "type": "event"
    },
    {
      "inputs": [],
      "name": "ACCESS_GRANTED",
      "outputs": [
        {
          "internalType": "string",
          "name": "",
          "type": "string"
        }
      ],
      "stateMutability": "view",
      "type": "function"
    },
    {
      "inputs": [],
      "name": "DOCTOR_REGISTERED",
      "outputs": [
        {
          "internalType": "string",
          "name": "",
          "type": "string"
        }
      ],
      "stateMutability": "view",
      "type": "function"
    },
    {
      "inputs": [],
      "name": "PATIENT_REGISTERED",
      "outputs": [
        {
          "internalType": "string",
          "name": "",
          "type": "string"
        }
      ],
      "stateMutability": "view",
      "type": "function"
    },
    {
      "inputs": [],
      "name": "RECORD_ADDED",
      "outputs": [
        {
          "internalType": "string",
          "name": "",
          "type": "string"
        }
      ],
      "stateMutability": "view",
      "type": "function"
    },
    {
      "inputs": [
        {
          "internalType": "address",
          "name": "_actor",
          "type": "address"
        },
        {
          "internalType": "string",
          "name": "_actionType",
          "type": "string"
        },
        {
          "internalType": "address",
          "name": "_subject",
          "type": "address"
        },
        {
          "internalType": "string",
          "name": "_details",
          "type": "string"
        }
      ],
      "name": "addAuditLog",
      "outputs": [],
      "stateMutability": "nonpayable",
      "type": "function"
    },
    {
      "inputs": [],
      "name": "admin",
      "outputs": [
        {
          "internalType": "address",
          "name": "",
          "type": "address"
        }
      ],
      "stateMutability": "view",
      "type": "function"
    },
    {
      "inputs": [
        {
          "internalType": "uint256",
          "name": "",
          "type": "uint256"
        }
      ],
      "name": "auditTrail",
      "outputs": [
        {
          "internalType": "address",
          "name": "actor",
          "type": "address"
        },
        {
          "internalType": "string",
          "name": "actionType",
          "type": "string"
        },
        {
          "internalType": "address",
          "name": "subject",
          "type": "address"
        },
        {
          "internalType": "string",
          "name": "details",
          "type": "string"
        },
        {
          "internalType": "uint256",
          "name": "timestamp",
          "type": "uint256"
        }
      ],
      "stateMutability": "view",
      "type": "function"
    },
    {
      "inputs": [],
      "name": "getAuditTrail",
      "outputs": [
        {
          "components": [
            {
              "internalType": "address",
              "name": "actor",
              "type": "address"
            },
            {
              "internalType": "string",
              "name": "actionType",
              "type": "string"
            },
            {
              "internalType": "address",
              "name": "subject",
              "type": "address"
            },
            {
              "internalType": "string",
              "name": "details",
              "type": "string"
            },
            {
              "internalType": "uint256",
              "name": "timestamp",
              "type": "uint256"
            }
          ],
          "internalType": "struct HealthcareAudit.AuditRecord[]",
          "name": "",
          "type": "tuple[]"
        }
      ],
      "stateMutability": "view",
      "type": "function"
    },
    {
      "inputs": [
        {
          "internalType": "address",
          "name": "_actor",
          "type": "address"
        }
      ],
      "name": "getAuditTrailByActor",
      "outputs": [
        {
          "components": [
            {
              "internalType": "address",
              "name": "actor",
              "type": "address"
            },
            {
              "internalType": "string",
              "name": "actionType",
              "type": "string"
            },
            {
              "internalType": "address",
              "name": "subject",
              "type": "address"
            },
            {
              "internalType": "string",
              "name": "details",
              "type": "string"
            },
            {
              "internalType": "uint256",
              "name": "timestamp",
              "type": "uint256"
            }
          ],
          "internalType": "struct HealthcareAudit.AuditRecord[]",
          "name": "",
          "type": "tuple[]"
        }
      ],
      "stateMutability": "view",
      "type": "function"
    },
    {
      "inputs": [
        {
          "internalType": "address",
          "name": "_subject",
          "type": "address"
        }
      ],
      "name": "getAuditTrailBySubject",
      "outputs": [
        {
          "components": [
            {
              "internalType": "address",
              "name": "actor",
              "type": "address"
            },
            {
              "internalType": "string",
              "name": "actionType",
              "type": "string"
            },
            {
              "internalType": "address",
              "name": "subject",
              "type": "address"
            },
            {
              "internalType": "string",
              "name": "details",
              "type": "string"
            },
            {
              "internalType": "uint256",
              "name": "timestamp",
              "type": "uint256"
            }
          ],
          "internalType": "struct HealthcareAudit.AuditRecord[]",
          "name": "",
          "type": "tuple[]"
        }
      ],
      "stateMutability": "view",
      "type": "function"
    }
  ],
  "bytecode": "0x608060405234801561001057600080fd5b50336000806101000a81548173ffffffffffffffffffffffffffffffffffffffff021916908373ffffffffffffffffffffffffffffffffffffffff160217905550611aa0806100606000396000f3fe608060405234801561001057600080fd5b506004361061009e5760003560e01c8063c3ed7c7e11610066578063c3ed7c7e1461015b578063c71e600614610179578063dc01df3714610197578063ddaf0929146101b5578063f851a440146101e95761009e565b80632fcc27a4146100a3578063391e4690146100c15780639904855a146100f1578063aa1d8bba14610121578063bff451391461013f575b600080fd5b6100ab610207565b6040516100b891906112df565b60405180910390f35b6100db60048036038101906100d69190611341565b610440565b6040516100e891906112df565b60405180910390f35b61010b60048036038101906101069190611341565b610822565b60405161011891906112df565b60405180910390f35b610129610c04565b60405161013691906113b8565b60405180910390f35b6101596004803603810190610154919061150f565b610c3d565b005b610163610df6565b60405161017091906113b8565b60405180910390f35b610181610e2f565b60405161018e91906113b8565b60405180910390f35b61019f610e68565b6040516101ac91906113b8565b60405180910390f35b6101cf60048036038101906101ca91906115da565b610ea1565b6040516101e0959493929190611625565b60405180910390f35b6101f1611037565b6040516101fe9190611686565b60405180910390f35b60606001805480602002602001604051908101604052809291908181526020016000905b8282101561043757838290600052602060002090600502016040518060a00160405290816000820160009054906101000a900473ffffffffffffffffffffffffffffffffffffffff1673ffffffffffffffffffffffffffffffffffffffff1673ffffffffffffffffffffffffffffffffffffffff1681526020016001820180546102b4906116d0565b80601f01602080910402602001604051908101604052809291908181526020018280546102e0906116d0565b801561032d5780601f106103025761010080835404028352916020019161032d565b820191906000526020600020905b81548152906001019060200180831161031057829003601f168201915b505050505081526020016002820160009054906101000a900473ffffffffffffffffffffffffffffffffffffffff1673ffffffffffffffffffffffffffffffffffffffff1673ffffffffffffffffffffffffffffffffffffffff16815260200160038201805461039c906116d0565b80601f01602080910402602001604051908101604052809291908181526020018280546103c8906116d0565b80156104155780601f106103ea57610100808354040283529160200191610415565b820191906000526020600020905b8154815290600101906020018083116103f857829003601f168201915b505050505081526020016004820154815250508152602001906001019061022b565b50505050905090565b60606000805b6001805490508110156104ed578373ffffffffffffffffffffffffffffffffffffffff166001828154811061047e5761047d611701565b5b906000526020600020906005020160000160009054906101000a900473ffffffffffffffffffffffffffffffffffffffff1673ffffffffffffffffffffffffffffffffffffffff16036104da5781806104d69061175f565b9250505b80806104e59061175f565b915050610446565b5060008167ffffffffffffffff81111561050a576105096113e4565b5b60405190808252806020026020018201604052801561054357816020015b61053061105b565b8152602001906001900390816105285790505b5090506000805b600180549050811015610816578573ffffffffffffffffffffffffffffffffffffffff166001828154811061058257610581611701565b5b906000526020600020906005020160000160009054906101000a900473ffffffffffffffffffffffffffffffffffffffff1673ffffffffffffffffffffffffffffffffffffffff160361080357600181815481106105e3576105e2611701565b5b90600052602060002090600502016040518060a00160405290816000820160009054906101000a900473ffffffffffffffffffffffffffffffffffffffff1673ffffffffffffffffffffffffffffffffffffffff1673ffffffffffffffffffffffffffffffffffffffff168152602001600182018054610662906116d0565b80601f016020809104026020016040519081016040528092919081815260200182805461068e906116d0565b80156106db5780601f106106b0576101008083540402835291602001916106db565b820191906000526020600020905b8154815290600101906020018083116106be57829003601f168201915b505050505081526020016002820160009054906101000a900473ffffffffffffffffffffffffffffffffffffffff1673ffffffffffffffffffffffffffffffffffffffff1673ffffffffffffffffffffffffffffffffffffffff16815260200160038201805461074a906116d0565b80601f0160208091040260200160405190810160405280929190818152602001828054610776906116d0565b80156107c35780601f10610798576101008083540402835291602001916107c3565b820191906000526020600020905b8154815290600101906020018083116107a657829003601f168201915b505050505081526020016004820154815250508383815181106107e9576107e8611701565b5b602002602001018190525081806107ff9061175f565b9250505b808061080e9061175f565b91505061054a565b50819350505050919050565b60606000805b6001805490508110156108cf578373ffffffffffffffffffffffffffffffffffffffff16600182815481106108605761085f611701565b5b906000526020600020906005020160020160009054906101000a900473ffffffffffffffffffffffffffffffffffffffff1673ffffffffffffffffffffffffffffffffffffffff16036108bc5781806108b89061175f565b9250505b80806108c79061175f565b915050610828565b5060008167ffffffffffffffff8111156108ec576108eb6113e4565b5b60405190808252806020026020018201604052801561092557816020015b61091261105b565b81526020019060019003908161090a5790505b5090506000805b600180549050811015610bf8578573ffffffffffffffffffffffffffffffffffffffff166001828154811061096457610963611701565b5b906000526020600020906005020160020160009054906101000a900473ffffffffffffffffffffffffffffffffffffffff1673ffffffffffffffffffffffffffffffffffffffff1603610be557600181815481106109c5576109c4611701565b5b90600052602060002090600502016040518060a00160405290816000820160009054906101000a900473ffffffffffffffffffffffffffffffffffffffff1673ffffffffffffffffffffffffffffffffffffffff1673ffffffffffffffffffffffffffffffffffffffff168152602001600182018054610a44906116d0565b80601f0160208091040260200160405190810160405280929190818152602001828054610a70906116d0565b8015610abd5780601f10610a9257610100808354040283529160200191610abd565b820191906000526020600020905b815481529060010190602001808311610aa057829003601f168201915b505050505081526020016002820160009054906101000a900473ffffffffffffffffffffffffffffffffffffffff1673ffffffffffffffffffffffffffffffffffffffff1673ffffffffffffffffffffffffffffffffffffffff168152602001600382018054610b2c906116d0565b80601f0160208091040260200160405190810160405280929190818152602001828054610b58906116d0565b8015610ba55780601f10610b7a57610100808354040283529160200191610ba5565b820191906000526020600020905b815481529060010190602001808311610b8857829003601f168201915b50505050508152602001600482015481525050838381518110610bcb57610bca611701565b5b60200260200101819052508180610be19061175f565b9250505b8080610bf09061175f565b91505061092c565b50819350505050919050565b6040518060400160405280601181526020017f444f43544f525f5245474953544552454400000000000000000000000000000081525081565b60006040518060a001604052808673ffffffffffffffffffffffffffffffffffffffff1681526020018581526020018473ffffffffffffffffffffffffffffffffffffffff168152602001838152602001428152509050600181908060018154018082558091505060019003906000526020600020906005020160009091909190915060008201518160000160006101000a81548173ffffffffffffffffffffffffffffffffffffffff021916908373ffffffffffffffffffffffffffffffffffffffff1602179055506020820151816001019081610d1c9190611953565b5060408201518160020160006101000a81548173ffffffffffffffffffffffffffffffffffffffff021916908373ffffffffffffffffffffffffffffffffffffffff1602179055506060820151816003019081610d799190611953565b506080820151816004015550508273ffffffffffffffffffffffffffffffffffffffff168573ffffffffffffffffffffffffffffffffffffffff167f037285f0826ec906016d3796cf211684bb6d1ac3c9a549aa9f1133bb14cf4694868542604051610de793929190611a25565b60405180910390a35050505050565b6040518060400160405280600e81526020017f4143434553535f4752414e54454400000000000000000000000000000000000081525081565b6040518060400160405280601281526020017f50415449454e545f52454749535445524544000000000000000000000000000081525081565b6040518060400160405280600c81526020017f5245434f52445f4144444544000000000000000000000000000000000000000081525081565b60018181548110610eb157600080fd5b90600052602060002090600502016000915090508060000160009054906101000a900473ffffffffffffffffffffffffffffffffffffffff1690806001018054610efa906116d0565b80601f0160208091040260200160405190810160405280929190818152602001828054610f26906116d0565b8015610f735780601f10610f4857610100808354040283529160200191610f73565b820191906000526020600020905b815481529060010190602001808311610f5657829003601f168201915b5050505050908060020160009054906101000a900473ffffffffffffffffffffffffffffffffffffffff1690806003018054610fae906116d0565b80601f0160208091040260200160405190810160405280929190818152602001828054610fda906116d0565b80156110275780601f10610ffc57610100808354040283529160200191611027565b820191906000526020600020905b81548152906001019060200180831161100a57829003601f168201915b5050505050908060040154905085565b60008054906101000a900473ffffffffffffffffffffffffffffffffffffffff1681565b6040518060a00160405280600073ffffffffffffffffffffffffffffffffffffffff16815260200160608152602001600073ffffffffffffffffffffffffffffffffffffffff16815260200160608152602001600081525090565b600081519050919050565b600082825260208201905092915050565b6000819050602082019050919050565b600073ffffffffffffffffffffffffffffffffffffffff82169050919050565b600061110d826110e2565b9050919050565b61111d81611102565b82525050565b600081519050919050565b600082825260208201905092915050565b60005b8381101561115d578082015181840152602081019050611142565b60008484015250505050565b6000601f19601f8301169050919050565b600061118582611123565b61118f818561112e565b935061119f81856020860161113f565b6111a881611169565b840191505092915050565b6000819050919050565b6111c6816111b3565b82525050565b600060a0830160008301516111e46000860182611114565b50602083015184820360208601526111fc828261117a565b91505060408301516112116040860182611114565b5060608301518482036060860152611229828261117a565b915050608083015161123e60808601826111bd565b508091505092915050565b600061125583836111cc565b905092915050565b6000602082019050919050565b6000611275826110b6565b61127f81856110c1565b935083602082028501611291856110d2565b8060005b858110156112cd57848403895281516112ae8582611249565b94506112b98361125d565b925060208a01995050600181019050611295565b50829750879550505050505092915050565b600060208201905081810360008301526112f9818461126a565b905092915050565b6000604051905090565b600080fd5b600080fd5b61131e81611102565b811461132957600080fd5b50565b60008135905061133b81611315565b92915050565b6000602082840312156113575761135661130b565b5b60006113658482850161132c565b91505092915050565b600082825260208201905092915050565b600061138a82611123565b611394818561136e565b93506113a481856020860161113f565b6113ad81611169565b840191505092915050565b600060208201905081810360008301526113d2818461137f565b905092915050565b600080fd5b600080fd5b7f4e487b7100000000000000000000000000000000000000000000000000000000600052604160045260246000fd5b61141c82611169565b810181811067ffffffffffffffff8211171561143b5761143a6113e4565b5b80604052505050565b600061144e611301565b905061145a8282611413565b919050565b600067ffffffffffffffff82111561147a576114796113e4565b5b61148382611169565b9050602081019050919050565b82818337600083830152505050565b60006114b26114ad8461145f565b611444565b9050828152602081018484840111156114ce576114cd6113df565b5b6114d9848285611490565b509392505050565b600082601f8301126114f6576114f56113da565b5b813561150684826020860161149f565b91505092915050565b600080600080608085870312156115295761152861130b565b5b60006115378782880161132c565b945050602085013567ffffffffffffffff81111561155857611557611310565b5b611564878288016114e1565b93505060406115758782880161132c565b925050606085013567ffffffffffffffff81111561159657611595611310565b5b6115a2878288016114e1565b91505092959194509250565b6115b7816111b3565b81146115c257600080fd5b50565b6000813590506115d4816115ae565b92915050565b6000602082840312156115f0576115ef61130b565b5b60006115fe848285016115c5565b91505092915050565b61161081611102565b82525050565b61161f816111b3565b82525050565b600060a08201905061163a6000830188611607565b818103602083015261164c818761137f565b905061165b6040830186611607565b818103606083015261166d818561137f565b905061167c6080830184611616565b9695505050505050565b600060208201905061169b6000830184611607565b92915050565b7f4e487b7100000000000000000000000000000000000000000000000000000000600052602260045260246000fd5b600060028204905060018216806116e857607f821691505b6020821081036116fb576116fa6116a1565b5b50919050565b7f4e487b7100000000000000000000000000000000000000000000000000000000600052603260045260246000fd5b7f4e487b7100000000000000000000000000000000000000000000000000000000600052601160045260246000fd5b600061176a826111b3565b91507fffffffffffffffffffffffffffffffffffffffffffffffffffffffffffffffff820361179c5761179b611730565b5b600182019050919050565b60008190508160005260206000209050919050565b60006020601f8301049050919050565b600082821b905092915050565b6000600883026118097fffffffffffffffffffffffffffffffffffffffffffffffffffffffffffffffff826117cc565b61181386836117cc565b95508019841693508086168417925050509392505050565b6000819050919050565b600061185061184b611846846111b3565b61182b565b6111b3565b9050919050565b6000819050919050565b61186a83611835565b61187e61187682611857565b8484546117d9565b825550505050565b600090565b611893611886565b61189e818484611861565b505050565b5b818110156118c2576118b760008261188b565b6001810190506118a4565b5050565b601f821115611907576118d8816117a7565b6118e1846117bc565b810160208510156118f0578190505b6119046118fc856117bc565b8301826118a3565b50505b505050565b600082821c905092915050565b600061192a6000198460080261190c565b1980831691505092915050565b60006119438383611919565b9150826002028217905092915050565b61195c82611123565b67ffffffffffffffff811115611975576119746113e4565b5b61197f82546116d0565b61198a8282856118c6565b600060209050601f8311600181146119bd57600084156119ab578287015190505b6119b58582611937565b865550611a1d565b601f1984166119cb866117a7565b60005b828110156119f3578489015182556001820191506020850194506020810190506119ce565b86831015611a105784890151611a0c601f891682611919565b8355505b6001600288020188555050505b505050505050565b60006060820190508181036000830152611a3f818661137f565b90508181036020830152611a53818561137f565b9050611a626040830184611616565b94935050505056fea2646970667358221220a3d5574d7ca4b56d624a0c5156349e91a2f7ddefc506347fdf1ff3cf2722764664736f6c63430008140033",
  "linkReferences": {},
  "deployedLinkReferences": {}
}